{
  "contractName": "MasterChef",
  "abi": [
    {
      "inputs": [
        {
          "internalType": "contract BearToken",
          "name": "_bear",
          "type": "address"
        },
        {
          "internalType": "address",
          "name": "_devaddr",
          "type": "address"
        },
        {
          "internalType": "address",
          "name": "_feeAddress",
          "type": "address"
        },
        {
          "internalType": "uint256",
          "name": "_bearPerBlock",
          "type": "uint256"
        },
        {
          "internalType": "uint256",
          "name": "_startBlock",
          "type": "uint256"
        }
      ],
      "stateMutability": "nonpayable",
      "type": "constructor"
    },
    {
      "anonymous": false,
      "inputs": [
        {
          "indexed": true,
          "internalType": "address",
          "name": "user",
          "type": "address"
        },
        {
          "indexed": true,
          "internalType": "uint256",
          "name": "pid",
          "type": "uint256"
        },
        {
          "indexed": false,
          "internalType": "uint256",
          "name": "amount",
          "type": "uint256"
        }
      ],
      "name": "Deposit",
      "type": "event"
    },
    {
      "anonymous": false,
      "inputs": [
        {
          "indexed": true,
          "internalType": "address",
          "name": "user",
          "type": "address"
        },
        {
          "indexed": true,
          "internalType": "uint256",
          "name": "pid",
          "type": "uint256"
        },
        {
          "indexed": false,
          "internalType": "uint256",
          "name": "amount",
          "type": "uint256"
        }
      ],
      "name": "EmergencyWithdraw",
      "type": "event"
    },
    {
      "anonymous": false,
      "inputs": [
        {
          "indexed": true,
          "internalType": "address",
          "name": "previousOwner",
          "type": "address"
        },
        {
          "indexed": true,
          "internalType": "address",
          "name": "newOwner",
          "type": "address"
        }
      ],
      "name": "OwnershipTransferred",
      "type": "event"
    },
    {
      "anonymous": false,
      "inputs": [
        {
          "indexed": true,
          "internalType": "address",
          "name": "user",
          "type": "address"
        },
        {
          "indexed": true,
          "internalType": "uint256",
          "name": "pid",
          "type": "uint256"
        },
        {
          "indexed": false,
          "internalType": "uint256",
          "name": "amount",
          "type": "uint256"
        }
      ],
      "name": "Withdraw",
      "type": "event"
    },
    {
      "inputs": [],
      "name": "BONUS_MULTIPLIER",
      "outputs": [
        {
          "internalType": "uint256",
          "name": "",
          "type": "uint256"
        }
      ],
      "stateMutability": "view",
      "type": "function"
    },
    {
      "inputs": [],
      "name": "bear",
      "outputs": [
        {
          "internalType": "contract BearToken",
          "name": "",
          "type": "address"
        }
      ],
      "stateMutability": "view",
      "type": "function"
    },
    {
      "inputs": [],
      "name": "bearPerBlock",
      "outputs": [
        {
          "internalType": "uint256",
          "name": "",
          "type": "uint256"
        }
      ],
      "stateMutability": "view",
      "type": "function"
    },
    {
      "inputs": [],
      "name": "devaddr",
      "outputs": [
        {
          "internalType": "address",
          "name": "",
          "type": "address"
        }
      ],
      "stateMutability": "view",
      "type": "function"
    },
    {
      "inputs": [],
      "name": "feeAddress",
      "outputs": [
        {
          "internalType": "address",
          "name": "",
          "type": "address"
        }
      ],
      "stateMutability": "view",
      "type": "function"
    },
    {
      "inputs": [],
      "name": "owner",
      "outputs": [
        {
          "internalType": "address",
          "name": "",
          "type": "address"
        }
      ],
      "stateMutability": "view",
      "type": "function"
    },
    {
      "inputs": [
        {
          "internalType": "uint256",
          "name": "",
          "type": "uint256"
        }
      ],
      "name": "poolInfo",
      "outputs": [
        {
          "internalType": "contract IBEP20",
          "name": "lpToken",
          "type": "address"
        },
        {
          "internalType": "uint256",
          "name": "allocPoint",
          "type": "uint256"
        },
        {
          "internalType": "uint256",
          "name": "lastRewardBlock",
          "type": "uint256"
        },
        {
          "internalType": "uint256",
          "name": "accBearPerShare",
          "type": "uint256"
        },
        {
          "internalType": "uint16",
          "name": "depositFeeBP",
          "type": "uint16"
        }
      ],
      "stateMutability": "view",
      "type": "function"
    },
    {
      "inputs": [],
      "name": "renounceOwnership",
      "outputs": [],
      "stateMutability": "nonpayable",
      "type": "function"
    },
    {
      "inputs": [],
      "name": "startBlock",
      "outputs": [
        {
          "internalType": "uint256",
          "name": "",
          "type": "uint256"
        }
      ],
      "stateMutability": "view",
      "type": "function"
    },
    {
      "inputs": [],
      "name": "totalAllocPoint",
      "outputs": [
        {
          "internalType": "uint256",
          "name": "",
          "type": "uint256"
        }
      ],
      "stateMutability": "view",
      "type": "function"
    },
    {
      "inputs": [
        {
          "internalType": "address",
          "name": "newOwner",
          "type": "address"
        }
      ],
      "name": "transferOwnership",
      "outputs": [],
      "stateMutability": "nonpayable",
      "type": "function"
    },
    {
      "inputs": [
        {
          "internalType": "uint256",
          "name": "",
          "type": "uint256"
        },
        {
          "internalType": "address",
          "name": "",
          "type": "address"
        }
      ],
      "name": "userInfo",
      "outputs": [
        {
          "internalType": "uint256",
          "name": "amount",
          "type": "uint256"
        },
        {
          "internalType": "uint256",
          "name": "rewardDebt",
          "type": "uint256"
        }
      ],
      "stateMutability": "view",
      "type": "function"
    },
    {
      "inputs": [],
      "name": "poolLength",
      "outputs": [
        {
          "internalType": "uint256",
          "name": "",
          "type": "uint256"
        }
      ],
      "stateMutability": "view",
      "type": "function"
    },
    {
      "inputs": [
        {
          "internalType": "uint256",
          "name": "_allocPoint",
          "type": "uint256"
        },
        {
          "internalType": "contract IBEP20",
          "name": "_lpToken",
          "type": "address"
        },
        {
          "internalType": "uint16",
          "name": "_depositFeeBP",
          "type": "uint16"
        },
        {
          "internalType": "bool",
          "name": "_withUpdate",
          "type": "bool"
        }
      ],
      "name": "add",
      "outputs": [],
      "stateMutability": "nonpayable",
      "type": "function"
    },
    {
      "inputs": [
        {
          "internalType": "uint256",
          "name": "_pid",
          "type": "uint256"
        },
        {
          "internalType": "uint256",
          "name": "_allocPoint",
          "type": "uint256"
        },
        {
          "internalType": "uint16",
          "name": "_depositFeeBP",
          "type": "uint16"
        },
        {
          "internalType": "bool",
          "name": "_withUpdate",
          "type": "bool"
        }
      ],
      "name": "set",
      "outputs": [],
      "stateMutability": "nonpayable",
      "type": "function"
    },
    {
      "inputs": [
        {
          "internalType": "uint256",
          "name": "_from",
          "type": "uint256"
        },
        {
          "internalType": "uint256",
          "name": "_to",
          "type": "uint256"
        }
      ],
      "name": "getMultiplier",
      "outputs": [
        {
          "internalType": "uint256",
          "name": "",
          "type": "uint256"
        }
      ],
      "stateMutability": "view",
      "type": "function"
    },
    {
      "inputs": [
        {
          "internalType": "uint256",
          "name": "_pid",
          "type": "uint256"
        },
        {
          "internalType": "address",
          "name": "_user",
          "type": "address"
        }
      ],
      "name": "pendingBear",
      "outputs": [
        {
          "internalType": "uint256",
          "name": "",
          "type": "uint256"
        }
      ],
      "stateMutability": "view",
      "type": "function"
    },
    {
      "inputs": [],
      "name": "massUpdatePools",
      "outputs": [],
      "stateMutability": "nonpayable",
      "type": "function"
    },
    {
      "inputs": [
        {
          "internalType": "uint256",
          "name": "_pid",
          "type": "uint256"
        }
      ],
      "name": "updatePool",
      "outputs": [],
      "stateMutability": "nonpayable",
      "type": "function"
    },
    {
      "inputs": [
        {
          "internalType": "uint256",
          "name": "_pid",
          "type": "uint256"
        },
        {
          "internalType": "uint256",
          "name": "_amount",
          "type": "uint256"
        }
      ],
      "name": "deposit",
      "outputs": [],
      "stateMutability": "nonpayable",
      "type": "function"
    },
    {
      "inputs": [
        {
          "internalType": "uint256",
          "name": "_pid",
          "type": "uint256"
        },
        {
          "internalType": "uint256",
          "name": "_amount",
          "type": "uint256"
        }
      ],
      "name": "withdraw",
      "outputs": [],
      "stateMutability": "nonpayable",
      "type": "function"
    },
    {
      "inputs": [
        {
          "internalType": "uint256",
          "name": "_pid",
          "type": "uint256"
        }
      ],
      "name": "emergencyWithdraw",
      "outputs": [],
      "stateMutability": "nonpayable",
      "type": "function"
    },
    {
      "inputs": [
        {
          "internalType": "address",
          "name": "_devaddr",
          "type": "address"
        }
      ],
      "name": "dev",
      "outputs": [],
      "stateMutability": "nonpayable",
      "type": "function"
    },
    {
      "inputs": [
        {
          "internalType": "address",
          "name": "_feeAddress",
          "type": "address"
        }
      ],
      "name": "setFeeAddress",
      "outputs": [],
      "stateMutability": "nonpayable",
      "type": "function"
    },
    {
      "inputs": [
        {
          "internalType": "uint256",
          "name": "_bearPerBlock",
          "type": "uint256"
        }
      ],
      "name": "updateEmissionRate",
      "outputs": [],
      "stateMutability": "nonpayable",
      "type": "function"
    }
  ],
  "bytecode": "0x6080604052600060075534801561001557600080fd5b506040516121bf3803806121bf833981810160405260a081101561003857600080fd5b5080516020820151604083015160608401516080909401519293919290919060006100616100f7565b600080546001600160a01b0319166001600160a01b0383169081178255604051929350917f8be0079c531659141344cd1fd0a4f28419497f9722a3daafe3b4186f6b6457e0908290a350600180546001600160a01b03199081166001600160a01b0397881617909155600280548216958716959095179094556004805490941692909416919091179091556003556008556100fb565b3390565b6120b58061010a6000396000f3fe608060405234801561001057600080fd5b50600436106101a35760003560e01c806384e82a33116100ee57806393c077f711610097578063d49e77cd11610071578063d49e77cd14610471578063d963842214610479578063e2bbb158146104ae578063f2fde38b146104d1576101a3565b806393c077f7146103de57806393f1a40b146103e65780639567d7ea14610438576101a3565b80638d88a90e116100c85780638d88a90e146103805780638da5cb5b146103b35780638dbb1e3a146103bb576101a3565b806384e82a33146102fa5780638705fcd4146103455780638aa2855014610378576101a3565b8063441a3e70116101505780635312ea8e1161012a5780635312ea8e146102cd578063630b5ba1146102ea578063715018a6146102f2576101a3565b8063441a3e701461028557806348cd4cb1146102a857806351eb05a6146102b0576101a3565b806317caf6f11161018157806317caf6f11461024457806337b6c8871461024c578063412753581461027d576101a3565b8063081e3eda146101a85780630ba84cd2146101c25780631526fe27146101e1575b600080fd5b6101b0610504565b60408051918252519081900360200190f35b6101df600480360360208110156101d857600080fd5b503561050a565b005b6101fe600480360360208110156101f757600080fd5b50356105a8565b6040805173ffffffffffffffffffffffffffffffffffffffff9096168652602086019490945284840192909252606084015261ffff166080830152519081900360a00190f35b6101b0610601565b610254610607565b6040805173ffffffffffffffffffffffffffffffffffffffff9092168252519081900360200190f35b610254610623565b6101df6004803603604081101561029b57600080fd5b508035906020013561063f565b6101b06107d0565b6101df600480360360208110156102c657600080fd5b50356107d6565b6101df600480360360208110156102e357600080fd5b5035610a72565b6101df610b1b565b6101df610b3e565b6101df6004803603608081101561031057600080fd5b5080359073ffffffffffffffffffffffffffffffffffffffff6020820135169061ffff60408201351690606001351515610c3e565b6101df6004803603602081101561035b57600080fd5b503573ffffffffffffffffffffffffffffffffffffffff16610edb565b6101b0610fa8565b6101df6004803603602081101561039657600080fd5b503573ffffffffffffffffffffffffffffffffffffffff16610fad565b61025461107a565b6101b0600480360360408110156103d157600080fd5b5080359060200135611096565b6101b06110b0565b61041f600480360360408110156103fc57600080fd5b508035906020013573ffffffffffffffffffffffffffffffffffffffff166110b6565b6040805192835260208301919091528051918290030190f35b6101b06004803603604081101561044e57600080fd5b508035906020013573ffffffffffffffffffffffffffffffffffffffff166110da565b61025461125e565b6101df6004803603608081101561048f57600080fd5b5080359060208101359061ffff6040820135169060600135151561127a565b6101df600480360360408110156104c457600080fd5b508035906020013561141d565b6101df600480360360208110156104e757600080fd5b503573ffffffffffffffffffffffffffffffffffffffff166115af565b60055490565b610512611739565b60005473ffffffffffffffffffffffffffffffffffffffff90811691161461059b57604080517f08c379a000000000000000000000000000000000000000000000000000000000815260206004820181905260248201527f4f776e61626c653a2063616c6c6572206973206e6f7420746865206f776e6572604482015290519081900360640190fd5b6105a3610b1b565b600355565b600581815481106105b557fe5b60009182526020909120600590910201805460018201546002830154600384015460049094015473ffffffffffffffffffffffffffffffffffffffff90931694509092909161ffff1685565b60075481565b60015473ffffffffffffffffffffffffffffffffffffffff1681565b60045473ffffffffffffffffffffffffffffffffffffffff1681565b60006005838154811061064e57fe5b6000918252602080832086845260068252604080852033865290925292208054600590920290920192508311156106e657604080517f08c379a000000000000000000000000000000000000000000000000000000000815260206004820152601260248201527f77697468647261773a206e6f7420676f6f640000000000000000000000000000604482015290519081900360640190fd5b6106ef846107d6565b6000610729826001015461072364e8d4a5100061071d8760030154876000015461173d90919063ffffffff16565b906117b0565b906117f2565b9050801561073b5761073b3382611834565b831561077257815461074d90856117f2565b825582546107729073ffffffffffffffffffffffffffffffffffffffff163386611a37565b6003830154825461078d9164e8d4a510009161071d9161173d565b6001830155604080518581529051869133917ff279e6a1f5e320cca91135676d9cb6e44ca8a08c0b88342bcdb1144f6511b5689181900360200190a35050505050565b60085481565b6000600582815481106107e557fe5b90600052602060002090600502019050806002015443116108065750610a6f565b8054604080517f70a08231000000000000000000000000000000000000000000000000000000008152306004820152905160009273ffffffffffffffffffffffffffffffffffffffff16916370a08231916024808301926020929190829003018186803b15801561087657600080fd5b505afa15801561088a573d6000803e3d6000fd5b505050506040513d60208110156108a057600080fd5b505190508015806108b357506001820154155b156108c5575043600290910155610a6f565b60006108d5836002015443611096565b9050600061090260075461071d86600101546108fc6003548761173d90919063ffffffff16565b9061173d565b60015460025491925073ffffffffffffffffffffffffffffffffffffffff908116916340c10f19911661093684600a6117b0565b6040518363ffffffff1660e01b8152600401808373ffffffffffffffffffffffffffffffffffffffff16815260200182815260200192505050600060405180830381600087803b15801561098957600080fd5b505af115801561099d573d6000803e3d6000fd5b5050600154604080517f40c10f1900000000000000000000000000000000000000000000000000000000815230600482015260248101869052905173ffffffffffffffffffffffffffffffffffffffff90921693506340c10f19925060448082019260009290919082900301818387803b158015610a1a57600080fd5b505af1158015610a2e573d6000803e3d6000fd5b50505050610a5c610a518461071d64e8d4a510008561173d90919063ffffffff16565b600386015490611ac4565b6003850155505043600290920191909155505b50565b600060058281548110610a8157fe5b600091825260208083208584526006825260408085203380875293528420805485825560018201959095556005909302018054909450919291610ade9173ffffffffffffffffffffffffffffffffffffffff919091169083611a37565b604080518281529051859133917fbb757047c2b5f3974fe26b7c10f732e7bce710b0952a71082702781e62ae05959181900360200190a350505050565b60055460005b81811015610b3a57610b32816107d6565b600101610b21565b5050565b610b46611739565b60005473ffffffffffffffffffffffffffffffffffffffff908116911614610bcf57604080517f08c379a000000000000000000000000000000000000000000000000000000000815260206004820181905260248201527f4f776e61626c653a2063616c6c6572206973206e6f7420746865206f776e6572604482015290519081900360640190fd5b6000805460405173ffffffffffffffffffffffffffffffffffffffff909116907f8be0079c531659141344cd1fd0a4f28419497f9722a3daafe3b4186f6b6457e0908390a3600080547fffffffffffffffffffffffff0000000000000000000000000000000000000000169055565b610c46611739565b60005473ffffffffffffffffffffffffffffffffffffffff908116911614610ccf57604080517f08c379a000000000000000000000000000000000000000000000000000000000815260206004820181905260248201527f4f776e61626c653a2063616c6c6572206973206e6f7420746865206f776e6572604482015290519081900360640190fd5b6127108261ffff161115610d2e576040517f08c379a0000000000000000000000000000000000000000000000000000000008152600401808060200182810382526025815260200180611fc56025913960400191505060405180910390fd5b8015610d3c57610d3c610b1b565b60006008544311610d4f57600854610d51565b435b600754909150610d619086611ac4565b6007556040805160a08101825273ffffffffffffffffffffffffffffffffffffffff95861681526020810196875290810191825260006060820181815261ffff95861660808401908152600580546001810182559381905293517f036b6384b5eca791c62761152d0c79bb0604c104a5fb6f4eb0703f3154bb3db09390940292830180547fffffffffffffffffffffffff000000000000000000000000000000000000000016949098169390931790965595517f036b6384b5eca791c62761152d0c79bb0604c104a5fb6f4eb0703f3154bb3db187015590517f036b6384b5eca791c62761152d0c79bb0604c104a5fb6f4eb0703f3154bb3db286015592517f036b6384b5eca791c62761152d0c79bb0604c104a5fb6f4eb0703f3154bb3db38501555090517f036b6384b5eca791c62761152d0c79bb0604c104a5fb6f4eb0703f3154bb3db490920180547fffffffffffffffffffffffffffffffffffffffffffffffffffffffffffff00001692909116919091179055565b60045473ffffffffffffffffffffffffffffffffffffffff163314610f6157604080517f08c379a000000000000000000000000000000000000000000000000000000000815260206004820152601860248201527f736574466565416464726573733a20464f5242494444454e0000000000000000604482015290519081900360640190fd5b600480547fffffffffffffffffffffffff00000000000000000000000000000000000000001673ffffffffffffffffffffffffffffffffffffffff92909216919091179055565b600181565b60025473ffffffffffffffffffffffffffffffffffffffff16331461103357604080517f08c379a000000000000000000000000000000000000000000000000000000000815260206004820152600960248201527f6465763a207775743f0000000000000000000000000000000000000000000000604482015290519081900360640190fd5b600280547fffffffffffffffffffffffff00000000000000000000000000000000000000001673ffffffffffffffffffffffffffffffffffffffff92909216919091179055565b60005473ffffffffffffffffffffffffffffffffffffffff1690565b60006110a760016108fc84866117f2565b90505b92915050565b60035481565b60066020908152600092835260408084209091529082529020805460019091015482565b600080600584815481106110ea57fe5b6000918252602080832087845260068252604080852073ffffffffffffffffffffffffffffffffffffffff89811687529084528186206005959095029092016003810154815483517f70a0823100000000000000000000000000000000000000000000000000000000815230600482015293519298509596909590949316926370a082319260248082019391829003018186803b15801561118a57600080fd5b505afa15801561119e573d6000803e3d6000fd5b505050506040513d60208110156111b457600080fd5b50516002850154909150431180156111cb57508015155b1561122b5760006111e0856002015443611096565b9050600061120760075461071d88600101546108fc6003548761173d90919063ffffffff16565b905061122661121f8461071d8464e8d4a5100061173d565b8590611ac4565b935050505b611253836001015461072364e8d4a5100061071d86886000015461173d90919063ffffffff16565b979650505050505050565b60025473ffffffffffffffffffffffffffffffffffffffff1681565b611282611739565b60005473ffffffffffffffffffffffffffffffffffffffff90811691161461130b57604080517f08c379a000000000000000000000000000000000000000000000000000000000815260206004820181905260248201527f4f776e61626c653a2063616c6c6572206973206e6f7420746865206f776e6572604482015290519081900360640190fd5b6127108261ffff16111561136a576040517f08c379a000000000000000000000000000000000000000000000000000000000815260040180806020018281038252602581526020018061205b6025913960400191505060405180910390fd5b801561137857611378610b1b565b6113b5836113af6005878154811061138c57fe5b9060005260206000209060050201600101546007546117f290919063ffffffff16565b90611ac4565b60078190555082600585815481106113c957fe5b90600052602060002090600502016001018190555081600585815481106113ec57fe5b906000526020600020906005020160040160006101000a81548161ffff021916908361ffff16021790555050505050565b60006005838154811061142c57fe5b6000918252602080832086845260068252604080852033865290925292206005909102909101915061145d846107d6565b8054156114a6576000611492826001015461072364e8d4a5100061071d8760030154876000015461173d90919063ffffffff16565b905080156114a4576114a43382611834565b505b82156115525781546114d09073ffffffffffffffffffffffffffffffffffffffff16333086611b38565b600482015461ffff16156115435760048201546000906114fd906127109061071d90879061ffff1661173d565b60045484549192506115299173ffffffffffffffffffffffffffffffffffffffff908116911683611a37565b815461153b9082906107239087611ac4565b825550611552565b805461154f9084611ac4565b81555b6003820154815461156d9164e8d4a510009161071d9161173d565b6001820155604080518481529051859133917f90890809c654f11d6e72a28fa60149770a0d11ec6c92319d6ceb2bb0a4ea1a159181900360200190a350505050565b6115b7611739565b60005473ffffffffffffffffffffffffffffffffffffffff90811691161461164057604080517f08c379a000000000000000000000000000000000000000000000000000000000815260206004820181905260248201527f4f776e61626c653a2063616c6c6572206973206e6f7420746865206f776e6572604482015290519081900360640190fd5b73ffffffffffffffffffffffffffffffffffffffff81166116ac576040517f08c379a00000000000000000000000000000000000000000000000000000000081526004018080602001828103825260268152602001806120146026913960400191505060405180910390fd5b6000805460405173ffffffffffffffffffffffffffffffffffffffff808516939216917f8be0079c531659141344cd1fd0a4f28419497f9722a3daafe3b4186f6b6457e091a3600080547fffffffffffffffffffffffff00000000000000000000000000000000000000001673ffffffffffffffffffffffffffffffffffffffff92909216919091179055565b3390565b60008261174c575060006110aa565b8282028284828161175957fe5b04146110a7576040517f08c379a000000000000000000000000000000000000000000000000000000000815260040180806020018281038252602181526020018061203a6021913960400191505060405180910390fd5b60006110a783836040518060400160405280601a81526020017f536166654d6174683a206469766973696f6e206279207a65726f000000000000815250611bd3565b60006110a783836040518060400160405280601e81526020017f536166654d6174683a207375627472616374696f6e206f766572666c6f770000815250611c8f565b600154604080517f70a08231000000000000000000000000000000000000000000000000000000008152306004820152905160009273ffffffffffffffffffffffffffffffffffffffff16916370a08231916024808301926020929190829003018186803b1580156118a557600080fd5b505afa1580156118b9573d6000803e3d6000fd5b505050506040513d60208110156118cf57600080fd5b505190508082111561198957600154604080517fa9059cbb00000000000000000000000000000000000000000000000000000000815273ffffffffffffffffffffffffffffffffffffffff8681166004830152602482018590529151919092169163a9059cbb9160448083019260209291908290030181600087803b15801561195757600080fd5b505af115801561196b573d6000803e3d6000fd5b505050506040513d602081101561198157600080fd5b50611a329050565b600154604080517fa9059cbb00000000000000000000000000000000000000000000000000000000815273ffffffffffffffffffffffffffffffffffffffff8681166004830152602482018690529151919092169163a9059cbb9160448083019260209291908290030181600087803b158015611a0557600080fd5b505af1158015611a19573d6000803e3d6000fd5b505050506040513d6020811015611a2f57600080fd5b50505b505050565b6040805173ffffffffffffffffffffffffffffffffffffffff8416602482015260448082018490528251808303909101815260649091019091526020810180517bffffffffffffffffffffffffffffffffffffffffffffffffffffffff167fa9059cbb00000000000000000000000000000000000000000000000000000000179052611a32908490611d03565b6000828201838110156110a757604080517f08c379a000000000000000000000000000000000000000000000000000000000815260206004820152601b60248201527f536166654d6174683a206164646974696f6e206f766572666c6f770000000000604482015290519081900360640190fd5b6040805173ffffffffffffffffffffffffffffffffffffffff80861660248301528416604482015260648082018490528251808303909101815260849091019091526020810180517bffffffffffffffffffffffffffffffffffffffffffffffffffffffff167f23b872dd00000000000000000000000000000000000000000000000000000000179052611bcd908590611d03565b50505050565b60008183611c79576040517f08c379a00000000000000000000000000000000000000000000000000000000081526004018080602001828103825283818151815260200191508051906020019080838360005b83811015611c3e578181015183820152602001611c26565b50505050905090810190601f168015611c6b5780820380516001836020036101000a031916815260200191505b509250505060405180910390fd5b506000838581611c8557fe5b0495945050505050565b60008184841115611cfb576040517f08c379a0000000000000000000000000000000000000000000000000000000008152602060048201818152835160248401528351909283926044909101919085019080838360008315611c3e578181015183820152602001611c26565b505050900390565b6060611d65826040518060400160405280602081526020017f5361666542455032303a206c6f772d6c6576656c2063616c6c206661696c65648152508573ffffffffffffffffffffffffffffffffffffffff16611ddb9092919063ffffffff16565b805190915015611a3257808060200190516020811015611d8457600080fd5b5051611a32576040517f08c379a000000000000000000000000000000000000000000000000000000000815260040180806020018281038252602a815260200180611fea602a913960400191505060405180910390fd5b6060611dea8484600085611df2565b949350505050565b6060611dfd85611fbe565b611e6857604080517f08c379a000000000000000000000000000000000000000000000000000000000815260206004820152601d60248201527f416464726573733a2063616c6c20746f206e6f6e2d636f6e7472616374000000604482015290519081900360640190fd5b600060608673ffffffffffffffffffffffffffffffffffffffff1685876040518082805190602001908083835b60208310611ed257805182527fffffffffffffffffffffffffffffffffffffffffffffffffffffffffffffffe09092019160209182019101611e95565b6001836020036101000a03801982511681845116808217855250505050505090500191505060006040518083038185875af1925050503d8060008114611f34576040519150601f19603f3d011682016040523d82523d6000602084013e611f39565b606091505b50915091508115611f4d579150611dea9050565b805115611f5d5780518082602001fd5b6040517f08c379a0000000000000000000000000000000000000000000000000000000008152602060048201818152865160248401528651879391928392604401919085019080838360008315611c3e578181015183820152602001611c26565b3b15159056fe6164643a20696e76616c6964206465706f7369742066656520626173697320706f696e74735361666542455032303a204245503230206f7065726174696f6e20646964206e6f7420737563636565644f776e61626c653a206e6577206f776e657220697320746865207a65726f2061646472657373536166654d6174683a206d756c7469706c69636174696f6e206f766572666c6f777365743a20696e76616c6964206465706f7369742066656520626173697320706f696e7473a2646970667358221220acdc5db5285584b1db181e785fa093d37f92b85f6286db3873ed0af6fa8d7de564736f6c634300060c0033",
  "immutableReferences": {},
  "source": "// SPDX-License-Identifier: MIT\n\npragma solidity 0.6.12;\n\nimport \"@openzeppelin/contracts/math/SafeMath.sol\";\nimport \"./libs/IBEP20.sol\";\nimport \"./libs/SafeBEP20.sol\";\nimport \"@openzeppelin/contracts/access/Ownable.sol\";\n\nimport \"./BearToken.sol\";\n\n// MasterChef is the master of Bear. He can make Bear and he is a fair guy.\n//\n// Note that it's ownable and the owner wields tremendous power. The ownership\n// will be transferred to a governance smart contract once BEAR is sufficiently\n// distributed and the community can show to govern itself.\n//\n// Have fun reading it. Hopefully it's bug-free. God bless.\ncontract MasterChef is Ownable {\n    using SafeMath for uint256;\n    using SafeBEP20 for IBEP20;\n\n    // Info of each user.\n    struct UserInfo {\n        uint256 amount;         // How many LP tokens the user has provided.\n        uint256 rewardDebt;     // Reward debt. See explanation below.\n        //\n        // We do some fancy math here. Basically, any point in time, the amount of EGGs\n        // entitled to a user but is pending to be distributed is:\n        //\n        //   pending reward = (user.amount * pool.accBearPerShare) - user.rewardDebt\n        //\n        // Whenever a user deposits or withdraws LP tokens to a pool. Here's what happens:\n        //   1. The pool's `accBearPerShare` (and `lastRewardBlock`) gets updated.\n        //   2. User receives the pending reward sent to his/her address.\n        //   3. User's `amount` gets updated.\n        //   4. User's `rewardDebt` gets updated.\n    }\n\n    // Info of each pool.\n    struct PoolInfo {\n        IBEP20 lpToken;           // Address of LP token contract.\n        uint256 allocPoint;       // How many allocation points assigned to this pool. EGGs to distribute per block.\n        uint256 lastRewardBlock;  // Last block number that EGGs distribution occurs.\n        uint256 accBearPerShare;   // Accumulated EGGs per share, times 1e12. See below.\n        uint16 depositFeeBP;      // Deposit fee in basis points\n    }\n\n    // The BEAR TOKEN!\n    BearToken public bear;\n    // Dev address.\n    address public devaddr;\n    // BEAR tokens created per block.\n    uint256 public bearPerBlock;\n    // Bonus muliplier for early bear makers.\n    uint256 public constant BONUS_MULTIPLIER = 1;\n    // Deposit Fee address\n    address public feeAddress;\n\n    // Info of each pool.\n    PoolInfo[] public poolInfo;\n    // Info of each user that stakes LP tokens.\n    mapping (uint256 => mapping (address => UserInfo)) public userInfo;\n    // Total allocation points. Must be the sum of all allocation points in all pools.\n    uint256 public totalAllocPoint = 0;\n    // The block number when BEAR mining starts.\n    uint256 public startBlock;\n\n    event Deposit(address indexed user, uint256 indexed pid, uint256 amount);\n    event Withdraw(address indexed user, uint256 indexed pid, uint256 amount);\n    event EmergencyWithdraw(address indexed user, uint256 indexed pid, uint256 amount);\n\n    constructor(\n        BearToken _bear,\n        address _devaddr,\n        address _feeAddress,\n        uint256 _bearPerBlock,\n        uint256 _startBlock\n    ) public {\n        bear = _bear;\n        devaddr = _devaddr;\n        feeAddress = _feeAddress;\n        bearPerBlock = _bearPerBlock;\n        startBlock = _startBlock;\n    }\n\n    function poolLength() external view returns (uint256) {\n        return poolInfo.length;\n    }\n\n    // Add a new lp to the pool. Can only be called by the owner.\n    // XXX DO NOT add the same LP token more than once. Rewards will be messed up if you do.\n    function add(uint256 _allocPoint, IBEP20 _lpToken, uint16 _depositFeeBP, bool _withUpdate) public onlyOwner {\n        require(_depositFeeBP <= 10000, \"add: invalid deposit fee basis points\");\n        if (_withUpdate) {\n            massUpdatePools();\n        }\n        uint256 lastRewardBlock = block.number > startBlock ? block.number : startBlock;\n        totalAllocPoint = totalAllocPoint.add(_allocPoint);\n        poolInfo.push(PoolInfo({\n            lpToken: _lpToken,\n            allocPoint: _allocPoint,\n            lastRewardBlock: lastRewardBlock,\n            accBearPerShare: 0,\n            depositFeeBP: _depositFeeBP\n        }));\n    }\n\n    // Update the given pool's BEAR allocation point and deposit fee. Can only be called by the owner.\n    function set(uint256 _pid, uint256 _allocPoint, uint16 _depositFeeBP, bool _withUpdate) public onlyOwner {\n        require(_depositFeeBP <= 10000, \"set: invalid deposit fee basis points\");\n        if (_withUpdate) {\n            massUpdatePools();\n        }\n        totalAllocPoint = totalAllocPoint.sub(poolInfo[_pid].allocPoint).add(_allocPoint);\n        poolInfo[_pid].allocPoint = _allocPoint;\n        poolInfo[_pid].depositFeeBP = _depositFeeBP;\n    }\n\n    // Return reward multiplier over the given _from to _to block.\n    function getMultiplier(uint256 _from, uint256 _to) public view returns (uint256) {\n        return _to.sub(_from).mul(BONUS_MULTIPLIER);\n    }\n\n    // View function to see pending EGGs on frontend.\n    function pendingBear(uint256 _pid, address _user) external view returns (uint256) {\n        PoolInfo storage pool = poolInfo[_pid];\n        UserInfo storage user = userInfo[_pid][_user];\n        uint256 accBearPerShare = pool.accBearPerShare;\n        uint256 lpSupply = pool.lpToken.balanceOf(address(this));\n        if (block.number > pool.lastRewardBlock && lpSupply != 0) {\n            uint256 multiplier = getMultiplier(pool.lastRewardBlock, block.number);\n            uint256 bearReward = multiplier.mul(bearPerBlock).mul(pool.allocPoint).div(totalAllocPoint);\n            accBearPerShare = accBearPerShare.add(bearReward.mul(1e12).div(lpSupply));\n        }\n        return user.amount.mul(accBearPerShare).div(1e12).sub(user.rewardDebt);\n    }\n\n    // Update reward variables for all pools. Be careful of gas spending!\n    function massUpdatePools() public {\n        uint256 length = poolInfo.length;\n        for (uint256 pid = 0; pid < length; ++pid) {\n            updatePool(pid);\n        }\n    }\n\n    // Update reward variables of the given pool to be up-to-date.\n    function updatePool(uint256 _pid) public {\n        PoolInfo storage pool = poolInfo[_pid];\n        if (block.number <= pool.lastRewardBlock) {\n            return;\n        }\n        uint256 lpSupply = pool.lpToken.balanceOf(address(this));\n        if (lpSupply == 0 || pool.allocPoint == 0) {\n            pool.lastRewardBlock = block.number;\n            return;\n        }\n        uint256 multiplier = getMultiplier(pool.lastRewardBlock, block.number);\n        uint256 bearReward = multiplier.mul(bearPerBlock).mul(pool.allocPoint).div(totalAllocPoint);\n        bear.mint(devaddr, bearReward.div(10));\n        bear.mint(address(this), bearReward);\n        pool.accBearPerShare = pool.accBearPerShare.add(bearReward.mul(1e12).div(lpSupply));\n        pool.lastRewardBlock = block.number;\n    }\n\n    // Deposit LP tokens to MasterChef for BEAR allocation.\n    function deposit(uint256 _pid, uint256 _amount) public {\n        PoolInfo storage pool = poolInfo[_pid];\n        UserInfo storage user = userInfo[_pid][msg.sender];\n        updatePool(_pid);\n        if (user.amount > 0) {\n            uint256 pending = user.amount.mul(pool.accBearPerShare).div(1e12).sub(user.rewardDebt);\n            if(pending > 0) {\n                safeBearTransfer(msg.sender, pending);\n            }\n        }\n        if(_amount > 0) {\n            pool.lpToken.safeTransferFrom(address(msg.sender), address(this), _amount);\n            if(pool.depositFeeBP > 0){\n                uint256 depositFee = _amount.mul(pool.depositFeeBP).div(10000);\n                pool.lpToken.safeTransfer(feeAddress, depositFee);\n                user.amount = user.amount.add(_amount).sub(depositFee);\n            }else{\n                user.amount = user.amount.add(_amount);\n            }\n        }\n        user.rewardDebt = user.amount.mul(pool.accBearPerShare).div(1e12);\n        emit Deposit(msg.sender, _pid, _amount);\n    }\n\n    // Withdraw LP tokens from MasterChef.\n    function withdraw(uint256 _pid, uint256 _amount) public {\n        PoolInfo storage pool = poolInfo[_pid];\n        UserInfo storage user = userInfo[_pid][msg.sender];\n        require(user.amount >= _amount, \"withdraw: not good\");\n        updatePool(_pid);\n        uint256 pending = user.amount.mul(pool.accBearPerShare).div(1e12).sub(user.rewardDebt);\n        if(pending > 0) {\n            safeBearTransfer(msg.sender, pending);\n        }\n        if(_amount > 0) {\n            user.amount = user.amount.sub(_amount);\n            pool.lpToken.safeTransfer(address(msg.sender), _amount);\n        }\n        user.rewardDebt = user.amount.mul(pool.accBearPerShare).div(1e12);\n        emit Withdraw(msg.sender, _pid, _amount);\n    }\n\n    // Withdraw without caring about rewards. EMERGENCY ONLY.\n    function emergencyWithdraw(uint256 _pid) public {\n        PoolInfo storage pool = poolInfo[_pid];\n        UserInfo storage user = userInfo[_pid][msg.sender];\n        uint256 amount = user.amount;\n        user.amount = 0;\n        user.rewardDebt = 0;\n        pool.lpToken.safeTransfer(address(msg.sender), amount);\n        emit EmergencyWithdraw(msg.sender, _pid, amount);\n    }\n\n    // Safe bear transfer function, just in case if rounding error causes pool to not have enough EGGs.\n    function safeBearTransfer(address _to, uint256 _amount) internal {\n        uint256 bearBal = bear.balanceOf(address(this));\n        if (_amount > bearBal) {\n            bear.transfer(_to, bearBal);\n        } else {\n            bear.transfer(_to, _amount);\n        }\n    }\n\n    // Update dev address by the previous dev.\n    function dev(address _devaddr) public {\n        require(msg.sender == devaddr, \"dev: wut?\");\n        devaddr = _devaddr;\n    }\n\n    function setFeeAddress(address _feeAddress) public{\n        require(msg.sender == feeAddress, \"setFeeAddress: FORBIDDEN\");\n        feeAddress = _feeAddress;\n    }\n\n    //Pancake has to add hidden dummy pools inorder to alter the emission, here we make it simple and transparent to all.\n    function updateEmissionRate(uint256 _bearPerBlock) public onlyOwner {\n        massUpdatePools();\n        bearPerBlock = _bearPerBlock;\n    }\n}\n",
  "sourcePath": "/Users/rostyslav/Desktop/kitty/goose/kitty-swap-core/contracts/MasterChef.sol",
  "compiler": {
    "name": "solc",
    "version": "0.6.12+commit.27d51765.Emscripten.clang"
  },
  "schemaVersion": "3.3.1",
  "updatedAt": "2021-02-24T02:22:28.392Z",
  "networkType": "ethereum",
  "devdoc": {
    "kind": "dev",
    "methods": {
      "owner()": {
        "details": "Returns the address of the current owner."
      },
      "renounceOwnership()": {
        "details": "Leaves the contract without owner. It will not be possible to call `onlyOwner` functions anymore. Can only be called by the current owner. NOTE: Renouncing ownership will leave the contract without an owner, thereby removing any functionality that is only available to the owner."
      },
      "transferOwnership(address)": {
        "details": "Transfers ownership of the contract to a new account (`newOwner`). Can only be called by the current owner."
      }
    },
    "version": 1
  },
  "userdoc": {
    "kind": "user",
    "methods": {},
    "version": 1
  }
}